:020000040800F2
:100000005004002001010008D70B0008730B000802
:10001000D50B000849010008810E0008000000000F
:10002000000000000000000000000000FB0B0008C2
:100030004B01000800000000F90B0008FD0B000850
:100040001B0100081B0100081B0100081B01000820
:100050001B0100081B0100081B0100081B01000810
:100060001B0100081B0100081B0100081B01000800
:100070001B0100081B0100081B0100081B010008F0
:100080001B0100081B0100081B0100081B010008E0
:100090001B0100081B0100081B0100081B010008D0
:1000A0001B0100081B0100081B0100081B010008C0
:1000B0001B0100081B010008000000001B010008D4
:1000C0001B01000800000000000000001B010008E8
:1000D000000000001B0100081B01000800000000D8
:1000E0001B0100081B0100081B010008DFF80CD0F1
:1000F00000F018F800480047A10E00085004002046
:100100000648804706480047FEE7FEE7FEE7FEE7B1
:10011000FEE7FEE7FEE7FEE7FEE7FEE7650C000808
:10012000ED000008064C074D06E0E06840F00103D2
:1001300094E8070098471034AC42F6D3FFF7DAFF93
:100140002C0F00084C0F0008FEE7704770B50446FE
:1001500000F0F6F80546601C02D00448007804441C
:1001600000F0EEF8401BA042FAD370BD040000205E
:100170002DE9F84FDFF894A100220AF1040B144690
:100180004FF0010C4FF00F090BF1040E0B680CFA45
:1001900004F52B40AB4271D15D4E4F68A7EB0608CA
:1001A000B7422BD00DDC032F34D005DC37B3012F41
:1001B00019D0022F2FD11BE0112F16D0122F2AD1C8
:1001C00019E0B8F5881F19D006DCB8F5803F15D0C6
:1001D000B8F5801F1FD111E0B8F5001F0ED0B8F59B
:1001E000041F18D10AE0CA6815E0CA68121D12E09F
:1001F000CA6808320FE0CA680C320CE08A682AB17B
:10020000012A4FF0080203D0456104E0042202E015
:10021000056100E00022FF2B01D8074601E000F154
:1002200004074FEA840601D9A6F120063D6809FAC1
:1002300006F825EA080502FA06F645EA06053D60D5
:100240004D68ED005CD5334DAE6946F00106AE61F8
:10025000AD6924F0030605F0010500952E4D7719D0
:10026000BD68A607360F09FA06F825EA0805DFF883
:10027000AC80404503D14FF0000810E040E0DFF8CB
:10028000A080404502D14FF0010808E0DFF89480DB
:10029000404502D14FF0020801E04FF0030808FA90
:1002A00006F848EA0508C7F808804D68ED0305D54B
:1002B000DAF800501D43CAF8005004E0DAF8006094
:1002C0009E43CAF800604D68DBF80060AD035D46F0
:1002D00001D51E4300E09E432E604D68DEF80060AD
:1002E000ED02754601D51E4300E09E432E604D6829
:1002F000AD020D4D2E6801D51E4300E09E432E60D9
:10030000641C102CFFF442AFBDE8F88F00040140DC
:1003100000001110001002400000014000080140E0
:10032000000C0140001001400C040140C2684A402A
:10033000C26070470AB1016170470904FBE7000021
:10034000014880687047000004000020024881686E
:10035000027811448160704704000020074810B5FE
:10036000016841F010010160032000F089F80020CD
:1003700000F006F800F024F8002010BD0020024034
:1003800070B50D4D04464FF47A712878B1FBF0F04A
:100390000A490968B1FBF0F000F019FB48B9102CCC
:1003A00007D200222146501E00F04AF800206C605F
:1003B00070BD012070BD000004000020000000207E
:1003C0001D4808B5816941F001018161806900F033
:1003D00001000090032000F053F8002211466FF056
:1003E0000B0000F02DF8002211466FF00A0000F01B
:1003F00027F8002211466FF0090000F021F80022D2
:100400001146501F00F01CF800221146101F00F08A
:1004100017F800221146901E00F012F80022114633
:10042000501E00F00DF80548416821F0E06141F0F0
:100430008061416008BD00000010024000000140E2
:10044000F0B40E4B1B680C46C3F30223C3F107053F
:10045000042D00D90425191D072901D2002300E02D
:10046000DB1E012606FA05F1491E214099409E40F7
:10047000761E16403143F0BC00F0AEBB0CED00E040
:10048000064900F0070208684FF6FF03184040EAEB
:100490000220034A10430860704700000CED00E0A2
:1004A0000000FA052DE9F047DFF83C8105460E46CD
:1004B000D8F8000000F00700B0420CD2D8F80010C5
:1004C00021F007013143C8F80010D8F8000000F00F
:1004D0000700B04263D12878444C800705D5606896
:1004E000A96820F0F000084360602878C00745D074
:1004F0006868012816D02168022816D089070029CB
:100500004DDA616821F0030101436160FFF718FFD4
:100510006968074641F2883001290FD002298146D7
:1005200019D027E021688903E9E78901E7E700BFDF
:10053000FFF706FFC11B494501D918E081466068F5
:10054000C0F381000128F3D118E000BFFFF7F8FEE7
:10055000C11B49450BD86068C0F381000228F5D162
:100560000CE000BFFFF7ECFEC11B494502D9032098
:10057000BDE8F087606810F00C0FF3D1D8F80010D8
:10058000404601F00701B1420BD9016821F0070193
:1005900031430160006800F00700B04201D0012043
:1005A000E6E72878400705D56068E96820F4E06050
:1005B000084360602878000706D56068296920F440
:1005C000605040EAC100606000F03CF86168084A91
:1005D000C1F30311515CC840064908600020FFF7D1
:1005E000CFFE0020C4E700000020024000100240BF
:1005F000140F000800000020014800687047000048
:10060000000000200448054900684968044AC1F315
:100610000221515CC84070470000002000100240D9
:10062000240F00080448054900684968044AC1F3DA
:10063000C221515CC84070470000002000100240F9
:10064000240F000812A185B00FC98DE80F0014A077
:10065000144A006804905168134801F00C03042BFD
:1006600010D0082B0ED1C1F38343C9031DF803003A
:100670000AD5516804AAC1F34041515C0A4A50436B
:10068000B0FBF1F005B0704708494843FAE70000B5
:1006900002030405060708090A0B0C0D0E0F1010C3
:1006A000010200000010024000127A0000093D0023
:1006B0002DE9F84F04460078B94DC00748D0686866
:1006C000C0F38100012807D06868C0F381000228C8
:1006D00009D16868C00306D52868800338D56068EA
:1006E00000286FD034E06068B0F5803F0BD010B1C7
:1006F000B0F5A02F11D0286820F480302860286839
:1007000020F4802002E0286840F48030286060688F
:1007100088B1FFF715FE064609E0286840F48020FE
:100720002860F0E7FFF70CFE801B642875D8286866
:100730008003F7D50CE0FFF703FE064605E000BF97
:10074000FFF7FEFD801B6428F0D828688003F7D4EB
:100750002078944E80074FF001094FF000083BD5F8
:10076000686810F00C0F07D06868C0F38100022899
:1007700009D16868C00306D42868800714D52069A9
:1007800001281FD110E02069B0B1C6F80090FFF732
:10079000D7FD074605E000BFFFF7D2FDC01B0228CA
:1007A000C4D828688007F7D52868616920F0F80068
:1007B00040EAC10028600FE0C6F80080FFF7C0FDE6
:1007C000074606E0E9E000BFFFF7BAFDC01B0228BC
:1007D00023D828688007F7D4207800072CD57248E2
:1007E000A169D9B1C0F80090FFF7AAFD074604E05F
:1007F000FFF7A6FDC01B02280FD8686A8007F7D54F
:100800006A484FF4FA510068B0FBF1F0009000BF65
:100810000098411E0091FAD20EE080E0C0F80080FE
:10082000FFF78EFD074604E0FFF78AFDC01B022894
:1008300075D8686A8007F7D42078400760D5E869E2
:100840000027C00008D4E86940F08050E861E869FA
:10085000012700F08050009055480168C90513D465
:100860000168834641F480710160FFF769FD8246AB
:1008700006E000BFFFF764FDA0EB0A0064284ED835
:10088000DBF80000C005F5D5E06801280AD008B102
:10089000052813D0286A20F001002862286A20F079
:1008A000040002E0286A40F001002862E06841F29A
:1008B000883B98B1FFF744FD82460BE0286A40F080
:1008C00004002862EEE700BFFFF73AFDA0EB0A0143
:1008D00059455AD8286A8007F6D50CE0FFF730FD55
:1008E000824605E0FFF72CFDA0EB0A0159454CD8E4
:1008F000286A8007F6D41FB1E86920F08050E861CB
:10090000E06988B36968C1F38101022945D00228F2
:10091000C6F8608004D0FFF713FD044638E034E0E9
:10092000FFF70EFD074604E0FFF70AFDC01B022893
:100930002BD828688001F7D4206AB0F5803F05D114
:100940006868A16820F4003008436860D4E90801B1
:100950000843696821F4741108436860C6F8609020
:10096000FFF7EEFC044606E015E000BFFFF7E8FCE9
:10097000001B022809D828688001F7D50BE000BFCA
:10098000FFF7DEFC001B022802D90320BDE8F88F28
:1009900028688001F4D40020F8E70120F6E7000081
:1009A0000010024000004242800442420000002049
:1009B000007000404FF0E0210428086903D020F0C7
:1009C00004000861704740F00400FAE7704710B572
:1009D000401EB0F1807F01D3012010BD4FF0E02414
:1009E00060610F21601700F0F7F80020A061072078
:1009F0002061002010BD10B5FFF7E8FF10BD70B5F5
:100A0000040004D094F83900002510B106E001205C
:100A100070BD84F83850204600F022F8242084F875
:100A200039002068C16821F40051C160204600F0FF
:100A30003DF92068016921F4904101612068416914
:100A400021F02A0141612068C16841F40051C16070
:100A5000E563202084F8390084F83A00002070BD56
:100A600010B50068114986B088421CD11048C16990
:100A700041F40031C161C0690E4C00F400300490B3
:100A80000420009002200190032003906946204634
:100A9000FFF76EFB00210820CDE9000102916946B5
:100AA0002046FFF765FB06B010BD00000044004083
:100AB00000100240000801402DE9F843044690F878
:100AC00039001F4616460D46202850D1A5B19EB1CB
:100AD00094F8380001284AD0012084F838004FF0FB
:100AE0000008C4F83C80212084F83900FFF728FC76
:100AF000A6848146E68426E00120BDE8F883E08CE8
:100B0000401EE084A0684B46B0F5805F4FF00002C5
:100B10004FF080012046009703D000F07FF9E8B93C
:100B20000DE000F07BF9C8B928882168C0F30800FF
:100B30004860206908B16D1C05E0AD1C03E0216828
:100B400015F8010B4860E08C0028D8D14B460022F4
:100B500040212046009700F061F908B10320CCE75E
:100B6000202084F8390084F838800020C5E702206E
:100B7000C3E7FEE7154810B5816986B041F0200152
:100B80008161816901F020010491816941F00401D2
:100B90008161816901F004010491816941F00801DA
:100BA000816180690A4C00F008000122049011461E
:100BB0002046FFF7BFFB0121022000910191039025
:100BC00069462046FFF7D4FA06B010BD0010024077
:100BD000000C0140FEE770470907090E002806DAFD
:100BE00000F00F0000F1E02080F8141D704700F1C4
:100BF000E02080F8001470477047704710B5FFF789
:100C0000A5FBBDE81040FFF7F6BE10B590B002207E
:100C1000009001200490102000240590079468465D
:100C2000FFF746FD00B1FEE70F20CDE90A040C9462
:100C30000D9400210AA80E94FFF734FC00B1FEE7E2
:100C4000FFF7DAFC4FF47A71B0FBF1F0FFF7BFFE6B
:100C50000420FFF7AFFE00221146501EFFF7F0FB05
:100C600010B010BD0D48016841F0010101604168FC
:100C70000B4A1140416001680A4A11400160016855
:100C800021F480210160416821F4FE0141604FF4AC
:100C90001F0181600449C0030860704700100240D2
:100CA0000000FFF8FFFFF6FE08ED00E02DE9F0413F
:100CB000044600680169E26821F440511143016172
:100CC0002169A0680843616908432168CA6841F244
:100CD0000C639A430243CA6020684169A26921F407
:100CE0004071114341614C49206864253226884295
:100CF0003CD1FFF797FC00EBC00101EB00106168ED
:100D00008900B0FBF1F7FFF78DFC00EBC00101EBB0
:100D100000106168B0468900B0FBF1F0B0FBF5F05F
:100D20006FF01801484307EB800106EB0110B0FBA0
:100D3000F5F000F0F006FFF775FC00EBC00101EBE9
:100D4000001061688900B0FBF1F0B0FBF5F006EB34
:100D50000016FFF767FC00EBC00101EB00106168B3
:100D60008900B0FBF1F7FFF75DFC3BE0FFF74AFCC1
:100D700000EBC00101EB001061688900B0FBF1F7E6
:100D8000FFF740FC00EBC00101EB00106168B046CA
:100D90008900B0FBF1F0B0FBF5F06FF018014843AB
:100DA00007EB800106EB0110B0FBF5F000F0F00658
:100DB000FFF728FC00EBC00101EB0010616889001F
:100DC000B0FBF1F0B0FBF5F006EB0016FFF71AFCF4
:100DD00000EBC00101EB001061688900B0FBF1F786
:100DE000FFF710FC00EBC00101EB00106168890007
:100DF000B0FBF1F0B0FBF5F06FF01801484307EBE2
:100E0000800108EB0110B0FBF5F0216800F00F0045
:100E100030448860BDE8F081003801402DE9F041A0
:100E2000984617460E460446069D1DE0681C1BD0DA
:100E30002DB1FFF785FAA0EB0800A84214D920686D
:100E4000C16821F4D071C1602068416921F00101BD
:100E50004161202084F8390084F83A00002084F8A9
:100E600038000320BDE8F0812068006836EA000001
:100E700004D00020B842D9D00020F3E70120F9E7E0
:100E8000FEE702E008C8121F08C1002AFAD1704725
:100E90007047002001E001C1121F002AFBD17047FA
:100EA0001CB5FFF75BFAFFF7B0FEFFF763FE1548CE
:100EB0001349082201604FF41651416000218160FE
:100EC000C160C0E904128161C161FFF798FD00B102
:100ED000FEE70DA10E4CD1E900014FF47A75CDE982
:100EE000000101212046FFF721FA2B46082269461E
:100EF0000448FFF7E1FDC820FFF728F9F1E70000FB
:100F000000440040100000204D6A4D78694D204D8E
:100F1000000C01400000000000000000010203047A
:100F20000607080900000000010203044C0F000836
:100F30000000002010000000820E00085C0F000876
:100F40001000002040040000920E000800A24A0495
:0C0F500001000000100000000000000084
:04000005080000ED02
:00000001FF
